{
  "contractName": "Ballot",
  "abi": [
    {
      "inputs": [
        {
          "name": "_registryAddress",
          "type": "address"
        }
      ],
      "payable": false,
      "stateMutability": "nonpayable",
      "type": "constructor"
    },
    {
      "anonymous": false,
      "inputs": [
        {
          "indexed": false,
          "name": "voter",
          "type": "address"
        }
      ],
      "name": "Voted",
      "type": "event"
    },
    {
      "constant": false,
      "inputs": [],
      "name": "vote",
      "outputs": [],
      "payable": false,
      "stateMutability": "nonpayable",
      "type": "function"
    }
  ],
  "bytecode": "0x608060405234801561001057600080fd5b506040516020806105158339810180604052602081101561003057600080fd5b8101908080519060200190929190505050600073ffffffffffffffffffffffffffffffffffffffff168173ffffffffffffffffffffffffffffffffffffffff16141515156100e6576040517f08c379a00000000000000000000000000000000000000000000000000000000081526004018080602001828103825260108152602001807f41646472657373206e6f74207265616c0000000000000000000000000000000081525060200191505060405180910390fd5b806000806101000a81548173ffffffffffffffffffffffffffffffffffffffff021916908373ffffffffffffffffffffffffffffffffffffffff160217905550506103df806101366000396000f3fe608060405234801561001057600080fd5b5060043610610048576000357c010000000000000000000000000000000000000000000000000000000090048063632a9a521461004d575b600080fd5b610055610057565b005b336000809054906101000a900473ffffffffffffffffffffffffffffffffffffffff1673ffffffffffffffffffffffffffffffffffffffff166304433bbc6040518163ffffffff167c01000000000000000000000000000000000000000000000000000000000281526004018080602001828103825260098152602001807f57686974656c697374000000000000000000000000000000000000000000000081525060200191505060206040518083038186803b15801561011757600080fd5b505afa15801561012b573d6000803e3d6000fd5b505050506040513d602081101561014157600080fd5b8101908080519060200190929190505050600160006101000a81548173ffffffffffffffffffffffffffffffffffffffff021916908373ffffffffffffffffffffffffffffffffffffffff160217905550600160009054906101000a900473ffffffffffffffffffffffffffffffffffffffff1673ffffffffffffffffffffffffffffffffffffffff1663d936547e336040518263ffffffff167c0100000000000000000000000000000000000000000000000000000000028152600401808273ffffffffffffffffffffffffffffffffffffffff1673ffffffffffffffffffffffffffffffffffffffff168152602001915050602060405180830381600087803b15801561024f57600080fd5b505af1158015610263573d6000803e3d6000fd5b505050506040513d602081101561027957600080fd5b810190808051906020019092919050505015156102fe576040517f08c379a000000000000000000000000000000000000000000000000000000000815260040180806020018281038252601c8152602001807f566f746572206e6f74207265676973746572656420746f20766f74650000000081525060200191505060405180910390fd5b600260003373ffffffffffffffffffffffffffffffffffffffff1673ffffffffffffffffffffffffffffffffffffffff168152602001908152602001600020600081548092919060010191905055507f16a9aa39af49f169911e977347975198c503525f7240d6892a626f0227642fce33604051808273ffffffffffffffffffffffffffffffffffffffff1673ffffffffffffffffffffffffffffffffffffffff16815260200191505060405180910390a15056fea165627a7a72305820c9d4caf2cec4b1f6979947d903bd3b20e165faede39e207681700623bfec8a2f0029",
  "source": "pragma solidity ^0.5.2;\r\n\r\nimport \"./interfaces/IRegistry.sol\";\r\nimport \"./interfaces/IWhitelist.sol\";\r\n\r\ncontract Ballot {\r\n  IRegistry private registry;\r\n  IWhitelist private whitelist;\r\n\r\n  event Voted(address voter);\r\n\r\n  mapping(address => uint) votes;\r\n\r\n  constructor(address _registryAddress)\r\n    public\r\n  {\r\n    require(_registryAddress != address(0), \"Address not real\");\r\n    registry = IRegistry(_registryAddress);\r\n  }\r\n\r\n  modifier isWhitelisted(address _address)\r\n  {\r\n    whitelist = IWhitelist(registry.getContractAddress(\"Whitelist\"));\r\n    require(whitelist.whitelisted(msg.sender), \"Voter not registered to vote\");\r\n    _;\r\n  }\r\n\r\n\r\n  function vote()\r\n    public\r\n    isWhitelisted(msg.sender)\r\n  {\r\n    votes[msg.sender]++;\r\n\r\n    // setTo!Whitelisted(msg.sender)\r\n\r\n    emit Voted(msg.sender);\r\n  }\r\n}",
  "sourcePath": "/home/bbk-dev/git/voting-smart-contracts/contracts/Ballot.sol",
  "compiler": {
    "name": "solc",
    "version": "0.5.2+commit.1df8f40c.Emscripten.clang"
  },
  "schemaVersion": "3.0.9",
  "updatedAt": "2019-07-13T19:50:42.729Z",
  "devdoc": {
    "methods": {}
  },
  "userdoc": {
    "methods": {}
  }
}